:020000041000EA
:10000000002000081B0100100D0000007D01001001
:1000100000000000000000000000000000000000E0
:100020000000000000000000000000007901001046
:1000300000000000000000007901001079010010AC
:100040007901001079010010790100107901001088
:100050007901001079010010790100107901001078
:100060007901001079010010790100107901001068
:100070007901001079010010790100107901001058
:100080000448054B10B5834203D0044B002B00D02D
:10009000984710BD780300087803000800000000AE
:1000A00006480749091A8B10C90FC91810B549101D
:1000B00003D0044B002B00D0984710BD78030008F4
:1000C000780300080000000010B5074C2378002BCF
:1000D00009D1FFF7D5FF054B002B02D0044800E003
:1000E00000BF0123237010BDB00300080000000012
:1000F00094150010054B10B5002B03D0044905489A
:1001000000E000BFFFF7CCFF10BDC04600000000BC
:10011000B4030008941500107047FFF7FDFF72B696
:100120000F4C104DAC4209DA21686268A368043BA9
:1001300002DBC858D050FAE70C34F3E70A490B4AFF
:100140000020521A02DD043A8850FCDC08480949B4
:100150000860BFF34F8F00F06FF800F01DF8FEE766
:10016000A0150010B8150010B0030008C80500085D
:100170000000000808ED00E0FEE7FEE700B50420FF
:100180007146084202D0EFF3098002E0EFF30880E5
:10019000043000F0BBFDFEE710B562B6034800F086
:1001A000C3F8002000F0BAFEFBE7C04600200010B4
:1001B00010B5002000F090FA10BD704770B5002017
:1001C00000F0EEFC041E28D0144B186000F064FB15
:1001D000411C200000F080FF114B0400186000F06B
:1001E0004DFB411C200000F077FF04000D4B013C4B
:1001F00018600D49200000F06FFFFA210B4D01300F
:1002000028708900200000F067FF094D0130286048
:10021000002000F0C5FC074B186070BD8800000886
:100220008C0000088000000840420F009400000885
:10023000900000088400000810B5204800F0ACF8D9
:10024000B022E02130201E4CD200A35889005B0070
:100250005B08A35063588343635080235B04A3501F
:10026000184B194AE250A02204339201E250FF22B7
:10027000164BE25000F014FFC02201215200A35897
:100280008B43A350FFF799FFFFF798FF104B032014
:100290001A681300BA33198807234B43126A802166
:1002A0009B180022DA605A600A4A00F05FFA0A4896
:1002B00000F022F9094800F05BF910BDD4140010D9
:1002C0000000264084050000010002008C050000AB
:1002D0004C05000878030008CC030008A0140010A7
:1002E0009023034A5B01D058032318407047C0464F
:1002F0000000204010B5902400F047F8074B64013F
:100300001959074A1140074A0A431A5110225968DD
:100310001142FCD000F03DF810BDC0460000204066
:10032000FCFF00000100FA05F8B590260E4C76019E
:10033000070000F02AF8A3590500DB439B0701D111
:10034000FFF7D8FF80239B00E750A259074B1A40C4
:10035000074B1343A351102362681A42FCD02800B4
:1003600000F017F8F8BDC04600002040FCFF000078
:100370000300FA05000000000230800803D00130BD
:100380000238FCD1C046C0467047EFF3108072B609
:10039000704780F310887047014B18607047C04663
:1003A0004C050008044B1B681A00BA3212881B6AFD
:1003B0005043C0187047C0464C050008A02300B544
:1003C0001B06984226D015D8802825D00AD8102898
:1003D00024D0402824D000280BD0154809E0A420C0
:1003E000C00306E08022134B520090421CD098427A
:1003F000F3D100BD104B984218D0104BC018042800
:10040000EBD800F05FFEECEA0F0305000C48F0E7C4
:100410000C48EEE70020ECE70B48EAE70B48E8E77A
:100420000B48E6E70B48E4E71800E2E7A020D7E72F
:10043000FF00520006005200090000A0FFFFFF0F5E
:10044000020052000300520005005200010050005B
:10045000020050000100520010B50020FFF7A2FF7B
:100460000A4B1C682300BC331B68C0180368002BB0
:100470000ADB074B1868FFF7A1FF012263689A6047
:100480009A68002AFCD110BD0248FCE74C05000820
:100490005005000802005000064B1B68BC331B6867
:1004A000C3181B68002B03DA89B241600020704733
:1004B0000148FCE74C05000801008A000368002B96
:1004C00004DA89B2C2608160002070470048FCE70E
:1004D00001008A00064B1B68BC331B68C3181B68ED
:1004E000002B03DAC36800200B6070470148FCE76B
:1004F0004C05000801008A00024B1A68002A00D14E
:100500001860704764050008F0B52C24154E44436C
:1005100030681F000019FF241E0A26402740124C95
:100520001B0C256807602C6A46608360BA352D88ED
:100530006F433F190761370080377F01E7190B4D83
:1005400076014761A4191F043B436419236000230B
:100550008361059BC2610162002B01D01B888381EE
:10056000F0BDC046640500084C05000808100000F6
:10057000F0B50400236987B0026841680393A3685B
:1005800004AD1732C0682B806A80039BA26A059174
:100590000095E16A266A676AFFF7B6FF00213B0013
:1005A0000A0030000091FFF7AFFF2800216B00F038
:1005B00077FB0022AB5E002B06DB1F2213401E3AA6
:1005C0009A401300014A136007B0F0BD00E100E05B
:1005D000F0B585B003931B4B16001C682C235843C1
:1005E0004B4320180769E418002F27D0A569002D78
:1005F00026D13B68002B23DA134B1B6834331B785E
:100600000193436801996068029300F0EBFD0122B9
:100610008A40336812049BB2134333600123FE60A7
:10062000A361039B01996362029800F0DBFD012343
:100630008B409BB2BB60280005B0F0BD034DFAE7CC
:10064000034DF8E7640500084C05000804028A0021
:1006500007028A0073B5002642690400D568019636
:100660002B0CB34221D01B0413601368194B006993
:100670001B68BC331B68C3181B68B34215DA01A999
:10068000FFF728FFB0420CD10198E26903681E0C05
:10069000DBB29A4205D9226A9B009B58002B00D0FE
:1006A000984731002069FFF7F7FEADB2002D09D061
:1006B00063691D6000251B68636AAB4205D09847DB
:1006C0006562A56163691B6873BDA36A002BF8D0DE
:1006D0009847F6E74C0500082C2310B54343034A1E
:1006E0001068C018FFF7B6FF10BDC04664050008CB
:1006F0001A4B70B51A680C00130033331B78834211
:100700002AD9002928D00D681F212B000B400D424B
:1007100022D11100BA310988126A48431900104DDC
:100720008018286022685209934210D30021FFF7F5
:10073000B3FE002122002868FFF7C0FE011E04D18D
:100740002868FFF7A9FE002800D0064870BD62683F
:100750009E00B1500133E5E70348F7E74C05000878
:100760006805000801018A0003018A000B0010B52A
:10077000002A0DD1002914D10B4A0C4C11680A0033
:10078000BA321288096A424352182260180010BD1A
:10079000002906D006490B604A60FFF7A9FF030055
:1007A000F4E7044BF2E7C0464C0500086805000872
:1007B0008803000803018A00F7B51B4F04003B685B
:1007C0000E00002B2BD0DB681A68824229D9002545
:1007D0005B680193A94202D1FFF7D7FD0500386895
:1007E0000368002B19DA1F23012223409A40640971
:1007F000019BA4001C1921680A420CD0914321607E
:1008000000240021FFF748FE002E02D12800FFF748
:10081000C0FD2000FEBD054CF3E7054CF4E7034C9A
:10082000F7E7044CF5E7C0466805000802018800B8
:100830000301880004018A000C4B1B68002B11D0B7
:10084000DB681A6882420FD959681F234209184091
:100850001E3B8340920050581840431E9841044B61
:10086000C01870470348FCE70348FAE7680500082A
:10087000000188000201880004018A00054B1B6802
:100880001A0088321B6812689B181868000AC0B2E8
:100890007047C0464C050008044B1B681A0088329C
:1008A0001B6812689B181868000E70474C050008FA
:1008B000034BE0308000C0588006800F7047C04670
:1008C00000002640024B18694007C00F7047C04621
:1008D00000002740A6220549D2008B580220DB43A6
:1008E0009B0702D00123885818407047000026401B
:1008F00010B5FFF7EFFF0023022801D1014B1B6861
:10090000180010BD70050008084A83009B18D0220B
:100910009200985807221040042806D1C022920065
:100920009B581F22FC30134018437047000026409C
:1009300010B5FFF7E9FF88235B0098421CD00BD865
:10094000012813D0022814D0431E9841104B404276
:100950001840104BC01810BD1223FF33984210D01E
:100960001423FF33984210D00020F4E70A4B186894
:10097000F1E7FFF7BDFFEEE7084A094BD058C00F7B
:1009800001E0FFF79FFFC003E5E7044A054BF5E7E9
:1009900000EE85FF00127A006C050008000026407A
:1009A0000C0500003C050000B023154ADB00D358BD
:1009B00010B59903DB01DB0F890BC371114B01608B
:1009C000D3580F24D904DB01DB0D0381B123DB00F5
:1009D000D358C90C81801900214081721909214026
:1009E000C172D9029B009B0F8373074BC90CD3586C
:1009F00081815A05DB01520FDB0D8271038210BD2C
:100A000000002640840500008C0500008030034B68
:100A1000FF308000C058C00F7047C046000026401D
:100A20000F4B421E1B683F331B78934216D9803010
:100A30007F220C4BFF308000C3581F201A400A70E1
:100A40001A0A02404A701A0C02408A701A01C24007
:100A500000209B009B0FCA700B7170470248FCE797
:100A60004C0500080000264001004A00F0B589B09E
:100A700003AD2800FFF798FFB0230026164ADB00DD
:100A8000D358B34224DAAB7B022B21D0AC88B442DA
:100A90001ED03000ED79039FFFF74AFF220033009C
:100AA00031000190681C00F0C3FB0C00050033000E
:100AB0003A003100019800F0BBFBE6076A083243B8
:100AC0006308801859412A00230000F091FB0600BA
:100AD000300009B0F0BDC04600002640F7B5234BFA
:100AE00006001B683F331B78002B08D000283BD042
:100AF000834204D36946FFF793FF041E01D000260A
:100B000032E03000FFF782FF2300002805D06B465B
:100B10001C79023C23005A1E93416A461778547888
:100B20009578002BEBD0002CE9D0002DE7D03000D9
:100B3000FFF7FEFE002306002A002000190000F047
:100B400077FB00230C0005003A003000190000F08C
:100B50006FFBE6076A0832436308801859412A0090
:100B6000230000F045FB06003000FEBD4C050008E8
:100B700010B5041E04D1FFF779FF002806D008E065
:100B8000064B1B683F331B78834203D22000FFF7DC
:100B9000CFFE10BDFFF7A2FFEFE7C0464C050008EF
:100BA00070B50500FFF784FEE035074BAD0004008B
:100BB000E8580F231840FFF7DBFF0123A3405B0831
:100BC0001818E04070BDC0460000264030B5FF2533
:100BD00003242A000440E400A24089012940D243B2
:100BE000A14083B200280ADBC0240B4B80088000A0
:100BF000C018A400035913400B43035130BD0F200C
:100C00000340083B05489B089B001B18D86902401D
:100C10000A43DA61F2E7C04600E100E000ED00E0DF
:100C2000144B30B51B6807241A002C3212781F2A87
:100C300015D882081500A5432C1E0FD1033420407F
:100C4000A04081401B68920020339B180A00FF21BE
:100C500081401C68624011406140196030BD1A68D3
:100C6000802320401B06034380208001091889004F
:100C70008B50F3E74C050008064B10B59A68064CFC
:100C800010308300A24202D19858995010BD034AF7
:100C9000D058FBE700ED00E0000000080000001065
:100CA000F7B504000E00002801D1144C17E0002312
:100CB000C55E134B4188134F0193002D11DB2800B3
:100CC000FFF7AEFF61682800FFF780FFBB68019A5D
:100CD0000024934203D131002800FFF7CDFF20000C
:100CE000FEBD08B26168FFF771FFBB68019A9342CD
:100CF000DBD131002800FFF7BFFFD6E70100560027
:100D00000000000800ED00E0FEE7000002680A4B6A
:100D100010B51A6042685A6082689A60C268DA60E8
:100D200002691A6142695A6182699A61C269DA612B
:100D3000FFF7EAFF10BDC04690030008B0235B0533
:100D40005A782120002A01D05878C0B27047B023C9
:100D50005B059A89002A02D0988980B2704780206A
:100D60004000FBE7254B73B586000D00F4580429BD
:100D700001D0012925D100200EE0A3682B420AD121
:100D8000E36829001A685B6868460193009223684B
:100D900098471B4B1C606469002C0AD0194B984281
:100DA000EBD1012DE9D1164A174B126815489A511B
:100DB00076BD012DFCD1134B9842F4D0124B9C51BF
:100DC000F6E7022914D026006469002CFBD100202C
:100DD000002EEDD0B3682B4208D1F36829001A68C1
:100DE0005B68684601930092336898473669EFE77D
:100DF000034B1B68181EDBD01E69E8E7B40500082A
:100E0000B0050008FF0042009C0500081A4B1B6853
:100E1000190088311A6809685118096801621900B7
:100E20008C3109685218126842621A0046321278F0
:100E3000002A1FD09A68E0321268D2061AD5F22230
:100E4000DB68D2019A580260F022D2019A584260BF
:100E50000A4A9A5882600A4A9A58C260094A9A58BD
:100E60000261094A9A584261084A9A588261084ABE
:100E70009B58C3617047C0464C05000804780000C9
:100E8000087800000C78000010780000147800004A
:100E9000187800001A4B1B681900883109681A6815
:100EA0005218016A116019008C3109681A685218C9
:100EB000416A11601A0046321278002A1ED09A68E0
:100EC000E0321268D20619D5F0224168DB68D201FF
:100ED000995081680B4A9950C1680B4A9950016931
:100EE0000A4A995041690A4A99508169094A9950B8
:100EF000C169094A99500168E83299507047C04663
:100F00004C05000804780000087800000C78000008
:100F1000107800001478000018780000F7B505007C
:100F2000FFF70CFF564F01907B68002B00D06FE05D
:100F3000FFF72BFA7B680090002B00D07CE0514B30
:100F400007271C682300BA331B885F43236AFB18FA
:100F50001A68002AFCDADB68DA001ED51B0F4A4843
:100F60001E07FFF753FF22008832126823684749A3
:100F70009B181A6801980A40212862D1902000012C
:100F800002431A6022008C32126823689B181A6888
:100F90000A40104318603C4B3343802292051343B0
:100FA000226A0024BF18FB607C607B68FFF7CFFEDD
:100FB0008023344F5B00984246D1280000F068FA45
:100FC0003F6807223B00BA331E883B6A5643F3183A
:100FD0001A68002AFCDADD68EB0003D52801000955
:100FE000FFF758FF00222A4B00981D403B6AF31878
:100FF000DD605A60FFF7CDF9002C10D1204B5B6803
:10100000002B03D008210120FFF7ACFE2000FEBD1D
:1010100001210800FFF7A6FE041E00D188E7184B47
:101020005B68002B03D002210120FFF79BFE194BC8
:101030009C42EBD0184CE9E704210120FFF792FE17
:101040007DE7802040009BE73B681A00BC32196AAC
:10105000126852181168002910DBBA331B889B18DC
:101060001B68002B0ADB04230C4A11690B43136134
:10107000012D01D030BFA3E720BFA1E7054C9FE7BA
:10108000B40500084C05000874050008FF00FFFFC8
:10109000FFFFFFDF05004200FF00420000ED00E01F
:1010A000C0228020064952008B58C0059B009B0837
:1010B00003438B50802388581B0603438B50704793
:1010C0000000264002B4714649084900095649000B
:1010D0008E4402BC7047C046002243088B4274D342
:1010E00003098B425FD3030A8B4244D3030B8B4229
:1010F00028D3030C8B420DD3FF22090212BA030C32
:101100008B4202D31212090265D0030B8B4219D312
:1011100000E0090AC30B8B4201D3CB03C01A524132
:10112000830B8B4201D38B03C01A5241430B8B427A
:1011300001D34B03C01A5241030B8B4201D30B0363
:10114000C01A5241C30A8B4201D3CB02C01A52418A
:10115000830A8B4201D38B02C01A5241430A8B424D
:1011600001D34B02C01A5241030A8B4201D30B0236
:10117000C01A5241CDD2C3098B4201D3CB01C01A50
:10118000524183098B4201D38B01C01A524143095A
:101190008B4201D34B01C01A524103098B4201D348
:1011A0000B01C01A5241C3088B4201D3CB00C01AB5
:1011B000524183088B4201D38B00C01A524143082D
:1011C0008B4201D34B00C01A5241411A00D2014652
:1011D000524110467047FFE701B5002000F006F8C5
:1011E00002BDC0460029F7D076E770477047C04679
:1011F000002B11D1002A0FD1002900D1002802D0E4
:101200000021C943080007B4024802A14018029017
:1012100003BDC046D9FFFFFF03B4684601B502987D
:1012200000F034F8019B9E4602B00CBC7047C046EB
:10123000F0B5CE469946030C9C46130447461B0C5A
:101240001D000E0061460404240C80B50700100C3C
:101250004B436543414360432C0CC01820188C4617
:10126000834203D980235B029846C44449467943AC
:101270005643030C2D042D0C8919634400044019B6
:10128000C918C0BCB946B046F0BDC046F0B5574617
:101290004E464546DE46E0B504000D0092469946AE
:1012A00083B08B4230D82DD04946504600F0D8F854
:1012B00029000600200000F0D3F8331A9846203B9E
:1012C00034D49B4653465A46934042461F005346E9
:1012D00093401E00AF423BD8AF4200D179E05B465D
:1012E000A41BBD41002B00DA76E00022002300920F
:1012F000019301235A4693400193012342469340B0
:10130000009329E08242CFD900220023009201936A
:101310000C9B002B01D01C605D600098019903B00C
:10132000F0BCBB46B246A946A046F0BD42469B462D
:1013300020239B1A5246DA40414613004A468A400F
:10134000170042461F43534693401E00AF42C3D985
:1013500000220023009201934346002BD8D0FB07C4
:1013600072081A4346467B080EE0AB4201D1A24206
:101370000CD8A41A9D41012024196D410021013E81
:1013800024184D41002E06D0AB42EED9013E24195F
:101390006D41002EF8D1009801995B460019694112
:1013A000002B24DB2B005A464446D3402A00E2405F
:1013B0001C005B461500002B2ADB26009E403300F4
:1013C00026004746BE403200801A994100900191A4
:1013D0009EE7A342BCD882E74246202300219B1A05
:1013E0000022009101920122DA40019285E74246F3
:1013F00020239B1A2A0046469A402300F340444685
:1014000013432A00E2401C005B461500002BD4DA8F
:1014100042462F002023260097409B1ADE403B00C7
:101420003343CDE71C2101231B04984201D3000C58
:1014300010391B0A984201D3000A08391B09984247
:1014400001D30009043902A2105C40187047C0465D
:10145000040302020101010100000000000000007D
:1014600010B5002903D1FFF7DDFF203002E00800AE
:10147000FFF7D8FF10BDC046F8B5C046F8BC08BCA1
:101480009E467047F8B5C046F8BC08BC9E467047FB
:1014900001B40248844601BC604700BF65020008F1
:1014A0000300000001000000010000000000000037
:1014B00005036000040000000100000000000000BF
:1014C0000100000006046000080000002C05000870
:1014D000B101001000002040000024400000004046
:1014E00000000000000023400000304000003140B8
:1014F00000009F40000022400000104000009D407E
:101500002020202020101010101D1D8017007500B5
:10151000FF03060206003604102000007FC0000012
:1015200000040000000000000019324B647D000040
:10153000000000804000080B100000000000FF01C8
:101540002002001F00800004FF0810180010001483
:101550000018001C4044484C5000000008100000D7
:101560000800000004000000041000000012000049
:10157000042100000021000000160000401140027C
:10158000C41300138013A01340138813A813200062
:101590001C00000000000000F4FCFF7F01000000C0
:1015A000000000100000000880000000C0150010BE
:1015B00080000008F8020000B003000818020000D4
:1015C00000093D0000093D0000127A0000093D00BD
:1015D000A00F000004000000F5000010C90000107A
:1015E00080B230B5C400002820D0114B1868030029
:1015F000BA331A8807235343026A9A1811680029DC
:10160000FCDA3E210B4A062511600B4A0B4911609A
:10161000A3210B4AC90055500A495450006A545836
:101620001B18002058605358002BFCDA30BDC04610
:101630004C05000804012640080126401E1F00003A
:10164000000026401C05000010B54378FF2B11D187
:1016500000F00AF90400032000F026F90121C36814
:101660005B681A680A431A601A680A42FCD12000B3
:1016700000F0E2F810BDF7B507000020019100F07E
:1016800013F93F4C050023681A005033BC3216682A
:101690001B788619002B5CD000F0EEF80090032830
:1016A00018D000F0E1F80400364A374BD158002931
:1016B000FCDAD358002B37DB344D009B032B05D1CC
:1016C0000121002000F0E8F80028F9D1200000F006
:1016D000B3F80AE0062000F0E7F82368BC331B6883
:1016E000C0180368002B02DA284D2800FEBD002038
:1016F00000F09AF8264B9842F6D00023254A1900AC
:101700000120126800F0A0F8041EEDD1002000F0C6
:101710008BF81F4A204B904203D09C42E4D0013406
:10172000F4E79C42BDD1DFE7012128001B4A00F00D
:1017300093F80028C0D10198FFF752FF002F06D080
:101740003368002BFCDB00F09FF80500B5E7144D73
:10175000B3E700F089F801210400104A280000F0E6
:101760007BF8002808D1002F08D03368002BFCDB61
:1017700000F08AF80500A9E7044DA7E7084DA5E7A2
:101780004C050008000026401C0500000500520022
:101790000101880060050008F049020050050008BA
:1017A00001005000184BF7B51B6818495A6804230C
:1017B0000C6923430B61012824D030BF1300FC3394
:1017C0001B69002B1DD1A324114B12481249E400C0
:1017D00007681E590D680195104D056006251D51BD
:1017E0003E240C600E4C3E351D511D59002DFCDA77
:1017F0000C4CFC321461A322D20007609E50019B66
:101800000B60F7BD20BFD9E74C05000800ED00E0F4
:101810000000264008012640040126401E1F00004B
:101820001C050000AAAAAAAA01B40248844601BC69
:10183000604700BF3908001001B40248844601BC6B
:10184000604700BF9303001001B40248844601BC06
:10185000604700BFD105001001B40248844601BCB6
:10186000604700BFBD04001001B40248844601BCBB
:10187000604700BF8B03001001B40248844601BCDE
:10188000604700BFE102001001B40248844601BC79
:10189000604700BF5904001001B40248844601BCEF
:1018A000604700BFB907001001B40248844601BC7C
:1018B000604700BFA503001000000000000000000A
:1018C0000000000000000000000000000000000018
:1020000000F80F08D92400100D0000004D25001025
:102010004D2500104D2500104D250010000000003A
:1020200000000000000000000000000061660010D9
:102030004925001000000000D16600100566001060
:102040004925001049250010492500104925001098
:102050004925001049250010492500104925001088
:102060004925001049250010492500104925001078
:102070004925001049250010492500104925001068
:1022E0000348044B834202D0034B03B118477047A5
:1022F000182C0008182C0008000000000548064BA8
:102300001B1AD90F01EBA301491002D0034B03B1F3
:1023100018477047182C0008182C0008000000000F
:1023200010B5064C237843B9FFF7DAFF044B13B11D
:102330000448AFF300800123237010BDE82C00088F
:1023400000000000446A0D1008B5054B1BB105499B
:102350000548AFF30080BDE80840FFF7CFBF00BFDE
:1023600000000000EC2C0008446A0D1010B588B085
:102370001B4B01934FF4806302931A4B03930A2380
:102380000493194B0593194B1B68069301A842F25D
:102390000503ADF81C3001F007FB39F06FFD014675
:1023A00010B113484BF07CFB124C13484FF48011D2
:1023B0004BF076FB216811484BF072FB104B114833
:1023C00019682368C91A4BF06BFB0F4B0F4819684B
:1023D0004BF066FB0E490F484BF062FB08B010BD96
:1023E000A8A60208042D000804310008E422000811
:1023F0005C360510E0220008763605108E36051092
:10240000E8220008A5360510EC220008BC360510AD
:10241000D3360510DC36051010B5044686B01948D1
:102420002DF04BFEA0422BD0174968462DF00EFE32
:1024300020BB0246214668462DF05AFEF0B9684698
:102440002DF01CFE98B1114904A82DF0FFFDA8B98C
:102450000C4902A82DF0FAFD80B9022104A82DF044
:102460005DFE58B9694602A82DF07EFE06E0012205
:10247000114668462DF00EFE0028E4D006B010BDCF
:102480000020FBE7DCFE051014FF05100CFF051013
:102490000D4B13B50D221A6000F0C4FA62B60B485A
:1024A000FFF7BAFF4FF4E1330093FF231A462821C8
:1024B0000446292035F082FE05484BF0F1FA04F07D
:1024C00051FF204602B010BD045900080044950891
:1024D000F336051070477047FFF7FCFF72B6144CD7
:1024E000144DAC4209DA21686268A368043BA2BFBC
:1024F000C858D050FAE70C34F3E70F490F4A0020D0
:102500009142BCBF41F8040BFAE70D480D49086041
:10251000BFF34F8F00F090F800F072F800F076FEF5
:102520004DF0CAFBFFF7B4FF4DF0EAFBFEE70000F9
:10253000506A0D10686A0D10E82C00089CD502083E
:102540000020000808ED00E0FEE7FEE700B50420EB
:102550007146084202D0EFF3098002E0EFF30880F1
:10256000043035F05FF9FEE70230800803D0013017
:102570000238FCD100BF00BF7047EFF3108072B685
:10258000704780F310887047012031F0A1BC70477C
:1025900010B5002035F016F8044610B3114B186042
:1025A00034F0AEF8104B0130B4FBF0F0186034F0AA
:1025B000BFF80E4B0E4A0130B4FBF0F41C60013C36
:1025C0000C4BB4FBF3F3013313704FF47A73B4FB89
:1025D000F3F4094B013400201C6034F0F3FF074B87
:1025E000186010BDF4220008F8220008EC22000850
:1025F0000023000840420F00FC220008F0220008DF
:1026000008B50A4830F078FFFFF7C1FFFFF7C0FFB9
:1026100000221146032031F09DFC054831F076FB85
:10262000BDE80840034831F0ADBB00BF64040610AC
:1026300008590008FC360510EFF3108172B6074AFE
:10264000D2F8883043F47003C2F88830BFF34F8F5C
:10265000BFF36F8F81F31088704700BF00ED00E07B
:1026600008B500F0CDF800F00FF800F0BFF800F06A
:1026700047F8BDE8084000F049B808B500F02EF86A
:10268000BDE8084000F05EB808B50F21012033F026
:1026900017FF00220F21012033F0FEFD0F21012042
:1026A00033F0D8FE0021084633F00AFF002211461D
:1026B000104633F0F1FD0021084633F0CBFE072130
:1026C000002033F0FDFE00220721104633F0E4FD28
:1026D000BDE808400721002033F0BCBE08B505481E
:1026E0002EF02EF904482EF02BF9BDE808400348DF
:1026F0002EF026B936370510303705103337051060
:10270000002211462F2033F079BE000010B5094C8D
:10271000094A0421204631F053FA084A062120468E
:1027200031F04EFA2046064ABDE81040072131F04C
:1027300047BA00BF00033140CC370510943705106D
:102740005C37051008B519482EF0FAF818482EF035
:10275000F7F818482EF0F4F817482EF0F1F817485B
:102760002EF0EEF816482EF0EBF816482EF0E8F8AA
:1027700015482EF0E5F815482EF0E2F814482EF032
:10278000DFF814482EF0DCF813482EF0D9F813487F
:102790002EF0D6F812482EF0D3F812482EF0D0F8CA
:1027A000BDE8084010482EF0CBB800BF0338051034
:1027B000063805104837051000380510C8370510D1
:1027C00090370510393705103C3705103F37051095
:1027D00042370510453705104B3705104E370510A9
:1027E000513705105437051057370510024B332267
:1027F0009A601A61704700BF00203040FEE7000079
:1028000030B5072285B00021322033F0F7FD962144
:10281000002035F053F834F0EBFFD0B9734DD5F804
:10282000004F04F03F0434F0D5FF48B1012034F0EC
:10283000C9FF6F4B9B6C002B02DA0620FFF7DEFF0F
:10284000C5F8004F34F052F834F03EF8012034F06F
:102850005FF8012035F0DAFA35F086FA35F04EFBF4
:1028600035F03AFB34F03CF90021084633F0D8FF4C
:10287000002033F04FFF012033F034FF002033F00D
:102880006BFE5C4B1B6893F83F4074BB21460120F4
:1028900034F0B0F8204633F0B9FF48B934F0D2F83C
:1028A00040F21113984203D10121204633F092FFE8
:1028B0000021084634F09EF80021084633F08AFFD4
:1028C00000231A4619464C48009331F0CFF80023F4
:1028D000494800931A46012131F0C8F8474833F0BF
:1028E000CFFF044630B10520A8E7204634F044FB72
:1028F000013CCAE7012033F0DFFE204633F00AFF37
:10290000204633F0EFFE204633F026FE214601201C
:1029100034F070F82146204634F06CF8214602204D
:1029200034F068F82146032034F064F8214604208E
:1029300034F060F82146052034F05CF8304834F07B
:10294000E9F808B1042079E72E4834F0C1FA0146CD
:102950000028F7D1039033F03DFF0399084633F088
:102960005FFF2949012034F02DFB08B1032065E702
:1029700042F21071012034F04FFC04460028F5D1DA
:1029800033F090FE204633F05DFE204633F06CFEBF
:1029900033F076FE2146204635F0F8FA012033F078
:1029A0003DFE33F091FF012033F0B2FF2046642159
:1029B00034F084FFFFF7ECFD2146204635F0E6FABF
:1029C00012482DF0BDFF12482DF0BAFF11482DF02E
:1029D000B7FF11482DF0B4FF10482DF0B1FF10489B
:1029E00005B0BDE830402DF0ABBF00BF00F0274080
:1029F000000027403CA602080000314040420F0082
:102A00000C380510400D0300323805102038051031
:102A10002338051026380510293805102C380510E4
:102A20002F38051010B52DF089FF044638B92FF066
:102A3000AFFE044618B940F6E4412FF0E7FEFFF779
:102A40000FFEFFF71AFE34B9044835F091F8044B35
:102A5000002808BF1C46204610BD00BF0423000804
:102A60000000020670470000034B0360034B0B603D
:102A70004FF400731360704790720008905A00087A
:102A8000034B0360034B0B604FF48063136070478C
:102A9000787300089062000810B505F08FFB03689A
:102AA0001BB1BDE810404068184710BD2DE9FF4B31
:102AB000DDF830B0884691461C46074688B3BBF522
:102AC000967F2ED323B113F0070503D0174825E0D6
:102AD0002BF0070505F1F40003F0C2FE064610B323
:102AE000134B0544002C08BF04460322002101209B
:102AF00003EA9B0B04F024FA0E4BC5F8E800C5E985
:102B00003B369DF834300093CDE901450E9B5A4683
:102B10004946404605F006F83860002004B0BDE89C
:102B2000F08B0548FAE70548F8E700BF06000E06F7
:102B3000FEFFFF3F01EFCDAB05000E0601000E06C4
:102B400010B504F071FF084BD0F8EC209A4204460F
:102B500006D10023D0F8E8001A46194603F02BFFEF
:102B6000204604F0F5FDFBE701EFCDAB10B50446C0
:102B7000C8B1006805F002F8246805F04FF8D4F8F1
:102B8000EC200A4B9A420AD10023D4F8E800C4F89A
:102B9000EC3004F09BFAD4F8F00003F071FE04F07E
:102BA000D9FC002010BD0248FCE700BF01EFCDAB0F
:102BB00005000E0610B5044698B103680A4AD3F81A
:102BC000EC1091420BD1D3F8E8004FF0FF3104F044
:102BD0007BF82046FFF7CAFF0023236010BD0020CA
:102BE000FAE70248FAE700BF01EFCDAB05000E0699
:102BF00010B5044660B1017141B1042004F0D8F968
:102C000000282060034818BF002010BD0120F5E710
:102C10000148FAE701000E0605000E0610B504464D
:102C200008467CB1FFF71EFF23790146206833B1C7
:102C300004F0DFF80028044818BF002010BD04F09D
:102C400043F8F7E70148F9E700000E0605000E0615
:102C500008B5034670B11B79006833B103F02FFF4C
:102C60000028054818BF002008BD1A46194603F081
:102C7000A2FEF5E70148F7E702000E0605000E0682
:102C8000F7B505460E4610463DB331B30024019416
:102C9000EFF30587AFB12868234601AA03F023FFAD
:102CA000012816D1019B4BB14FF0E0234FF0805229
:102CB000C3F8042DBFF34F8FBFF36F8F002003B015
:102CC000F0BDFFF7CFFE3B4602463146286803F0D1
:102CD00072FE0028F2D10248F1E70248EFE700BF98
:102CE00002000E0605000E0673B505460E46104698
:102CF0002DB321B300240194EFF30583A3B1286819
:102D000001AA04F072F9012815D1019B4BB14FF0D3
:102D1000E0234FF08052C3F8042DBFF34F8FBFF371
:102D20006F8F002002B070BDFFF79CFE3146024657
:102D3000286803F050FF0028F3D10248F2E7024868
:102D4000F0E700BF02000E0605000E0608B520B130
:102D5000006804F0BBF9002008BD0148FCE700BF93
:102D600005000E0610B50446084611463CB104F0B5
:102D700011F900282060034818BF002010BD024848
:102D8000FCE700BF01000E0605000E0613B5002388
:102D90000193044638B3EFF3058303B119BB08462A
:102DA000FFF760FE0146EFF30583ABB1206801AA8F
:102DB000002104F01AF9A0B1019B13B9002002B060
:102DC00010BD4FF0E0234FF08052C3F8042DBFF345
:102DD0004F8FBFF36F8FF1E7206803F075FF002876
:102DE000ECD10248EBE70248E9E700BF00000E061D
:102DF00005000E0613B50024019400B3EFF305831C
:102E00000068A3B101A903F0B0FE012813D1019B12
:102E100013B9002002B010BD4FF0E0234FF08052F4
:102E2000C3F8042DBFF34F8FBFF36F8FF1E71A463E
:102E3000194603F0C0FD0028EBD10248EAE702483A
:102E4000E8E700BF02000E0605000E0608B520B137
:102E5000006804F03BF9002008BD0148FCE700BF12
:102E600005000E0610B5044638B103F037FB002804
:102E70002060034818BF002010BD0248FCE700BFD7
:102E800001000E0605000E0608B520B1006803F02B
:102E900033FB002008BD0148FCE700BF05000E061B
:102EA00010B504460846114644B1002204F048F823
:102EB00000282060024818BF002010BD0148FCE730
:102EC00001000E0605000E06FFF7C0BF2DE9F34115
:102ED0000F46164698460546C0B1BAB1082048F0DC
:102EE000F9FD044680B10C4BB7FA87F2C0E90068DF
:102EF0005209009301210346084805F019F928609A
:102F000040B9204648F0EEFD054800E0054802B013
:102F1000BDE8F0810020FAE7992A0010069205101A
:102F200001000E0605000E067FB50646002854D0A7
:102F30000846FFF797FD0246EFF30585A5B300238A
:102F400000930393306803AB092105F015F90128BC
:102F500004463DD1039B4BB14FF0E0234FF080522C
:102F6000C3F8042DBFF34F8FBFF36F8F0025346874
:102F7000039504F061FE0095024603AB204606214E
:102F800005F0FAF80128044622D1039850B14FF019
:102F9000E0234FF08052C3F8042DBFF34F8FBFF3EF
:102FA0006F8F284604B070BD009530682B46042111
:102FB00005F0E2F8012804460AD1366804F036FE2E
:102FC0002146024600952B46304605F0D5F80446CA
:102FD000002C034818BF0020E4E70248E2E700BFE6
:102FE00002000E0605000E061FB528B3EFF3058399
:102FF0000068C3B10022009203AB0821039205F0E0
:10300000BBF8012814D1039B4BB14FF0E0234FF0E4
:103010008052C3F8042DBFF34F8FBFF36F8F002092
:1030200005B05DF804FB00931A46032105F0A4F8EF
:103030000028F4D10148F3E70148F1E702000E0649
:1030400005000E0673B5054690B1006805F0B6F8A8
:10305000002400940646234628682246052105F0F0
:103060008BF838B1304648F03DFD204602B070BDC7
:103070000148FBE70148F9E705000E0602000E06CD
:1030800010B5044620B104F0D1FD2060002010BD31
:103090000048FCE705000E0608B5FFF7E3FC04F066
:1030A000EDFA002008BD13B504464FF0FF32694623
:1030B0002046FFF719FE0028F7D1009B13B10198B5
:1030C0009847F2E7FFF73CFD02B010BD7FB50E4612
:1030D0001022002105464AF0C5FF316900294FF052
:1030E000080208BF10212846FFF7DAFE0446C0B9DF
:1030F00001232B733378F2680B49019373680093B3
:10310000002A08BF0A46B3680849029505F108007D
:10311000FFF7CCFC044620B100232B732846FFF7B1
:10312000D3FE204604B070BD37380510A73000101C
:10313000F7B50546FFF721FA2F7B0646AFB3012FFF
:1031400014D103232B73FFF71CFA0022694628468B
:10315000CDE90022FFF794FD044638B1FFF70DFAE0
:103160002F73FFF70EFA204603B0F0BD2B7B042B24
:103170000ED03046FFF705FA05F10800FFF71AFDFB
:1031800004460028EFD1FFF7F8F9042306462B7315
:103190003046FFF7F6F92846FFF796FE044600286A
:1031A000E1D1FFF7EAF92C7306463046FFF7E9F95B
:1031B0000024D8E773B504460E461546FFF7DDF93F
:1031C000237B013B012B05D9FFF7DBF90E4D284688
:1031D00002B070BD63680133636002232373FFF79D
:1031E000D0F9002269462046CDE90065FFF748FD89
:1031F0000546FFF7C2F96368013B63600BB9012321
:103200002373FFF7BEF9E2E720000E0670470000C7
:103210000A490B4A08B503460868121A9A4203DBAA
:10322000084A0344934206DA4CF040FD0C23036045
:103230004FF0FF3008BD0B60FCE700BF2023000803
:1032400000E80F08A0D5020804F0E8BC04F082B939
:1032500004F0E4BC04F07EB970B5194E00238CB0C4
:103260000022CDE90023044604F0D8FC336893B172
:10327000306803A92DF094FDE0B903A84BF0AAFA39
:10328000CDE9000104F066F9DDE900010CB1C4E903
:1032900000010CB070BD0B4D28462DF07BFD48B9E8
:1032A000684635604BF0ACF8014628462DF0F0FD3D
:1032B0000028DDD004F04EF94FF0FF300146E5E77D
:1032C000607400086474000810B5044604F0A6FC9D
:1032D000024B1C60BDE8104004F03CB9607400086B
:1032E00008B50C4B93F9001021B90B484AF046FC85
:1032F000002008BD01F10903DBB2092B9ABF6FF072
:103300000303064A064A07489CBF4B43D2584AF07B
:10331000C7FBEDE7008D000850380510183C05107C
:10332000403805105738051008B54AF0CBFB034B61
:103330001B689868BDE808404AF0EEBA9828000873
:1033400010B5441E14F8010F30B9054B1B68BDE8D9
:10335000104098684AF0E0BA4AF0B4FBF2E700BFC8
:103360009828000830B40C4CA36C83420D4603D857
:1033700000230B7030BC7047616CE36CE26A0B4455
:103380001B1AB3FBF1F001FB1033216C284602FB42
:10339000031130BC4AF0A7BE988C000807B5019015
:1033A0004CF03CFD019950B106484AF079FB064BC0
:1033B0001B68986803B05DF804EB4AF0ADBA03B03F
:1033C0005DF804FBFE0F06109828000810B5054CA8
:1033D000D4E90C031844FFF7E1FF206B4CF01EFD0D
:1033E000606310BD988C00082DE9F341194C216BE6
:1033F0000191054608464CF011FD01990746D5B1EB
:10340000681EFFF7AFFF206B4CF008FD06460D204D
:10341000FFF78AFFE06DFFF7C1FF206BFFF7BEFFEC
:10342000B046B84509D3B046B8450CD3C4E90D65DC
:1034300002B0BDE8F0810D70E5E72020FFF774FFD2
:1034400008F10108EDE70820FFF76EFF08F1010819
:10345000EAE700BF988C000810B5054C00230D204A
:103460006363FFF761FFE06DBDE81040FFF796BFB3
:10347000988C000870B5114C0646206B4CF0CEFCC1
:10348000451C2B46D4E90C2199420CD35654D4E95F
:103490000C031844FFF782FF636B01336363636BB4
:1034A000AB4205D370BD591E505CD0540B46E9E7C2
:1034B0000820FFF739FF013DF1E700BF988C0008B5
:1034C0002DE9F04F504C85B0206B4CF0A7FC064620
:1034D000FFF77CFF94F85650B5B10027DFF830A114
:1034E000DFF828B104F10409B846A36A434567DC54
:1034F00047B14648FFF752FFE06DFFF74FFF206BE3
:10350000FFF74CFF002315E0A36A0293216B231DF4
:1035100001932F46A846AB46029B5B450FDCB8F1F2
:10352000000F06D008464CF079FCB8423ED3002D7F
:103530003CD1012384F8563005B0BDE8F08F019BE3
:1035400053F8042F019302F11C0A5AF81C9CB9F19C
:10355000000F02D10BF1010BDEE732464846039122
:103560004AF0AFFD0399D0B9B8F1000F0CD0304646
:1035700000E00130874205D918F8005019F8002002
:103580009542F6D0002506E0484603914CF046FCF3
:103590000399C84601250AF11C0A0746D5E73846B3
:1035A000F9E718F80600FFF765FF0136B742F8D8CB
:1035B000002DC1D0202005B0BDE8F04FFFF75ABF65
:1035C00059F8045F2B681C3513B908F101088CE722
:1035D000216B0193324618464AF073FD0028F1D161
:1035E000019B1B78002BEDD0BB0709D15846FFF794
:1035F000D5FE55F81C1C50464AF052FA0137E1E757
:103600002020FFF791FEF4E7988C0008543905104C
:103610006738051038B50F4D286B4CF0FFFB6B6B0E
:103620002A6B83420BD3441E686B1044FFF7B6FE2F
:103630000948FFF785FE6B6BA34205D338BD591CC3
:10364000545CD4540B46EBE70820FFF76DFE013CB9
:10365000F1E700BF988C0008703805100148FFF7AB
:103660006FBE00BFFB910510044B986B9B6C98429A
:1036700002D20130FFF7B8BEFFF7F0BF988C000808
:10368000034B986B10B10138FFF7AEBEFFF7E6BFF2
:10369000988C000810B5074C636B33B10820FFF716
:1036A00043FE636B013B636310BDBDE810400248FD
:1036B000FFF746BE988C0008FB91051070B5094CC9
:1036C000D4E90C6530464CF0A9FB854206D2705D0A
:1036D000FFF72AFE636B0133636370BDBDE8704082
:1036E000FFF7BCBF988C000810B5084C206B4CF05D
:1036F00095FB636B834205D20023A363BDE81040B2
:10370000FFF788BFBDE81040FFF7A8BF988C0008FE
:103710002DE9F041924C20680023194602224068AE
:103720004AF034FA206800231946022280684AF0E1
:103730002DFA2068002302221946C0684AF026FAB2
:103740006420FFF7A9FC064628B10146BDE8F04118
:1037500084484AF0A5B9844CDFF81082012784F828
:103760005470606847F0ABFF002800F0F08060689C
:1037700047F0ACFF94F83C3084F85570C5B2002B8C
:1037800066D04F2D3ED83A2D0AD8A5F13002092A2D
:103790003CD884F83D5084F83C3084F85560E0E72C
:1037A000A5F13B02142A31D801A151F822F000BF43
:1037B000933700100D3800100D3800100D38001030
:1037C0000D3800100D380010153800101D3800108D
:1037D00023380010293800100D3800102F38001041
:1037E0000D380010453800100D3800100D3800104D
:1037F0000D3800100D3800100D3800100D38001075
:10380000933700105B2DC4D07E2D13D04046FFF7B8
:1038100097FD01E0FFF728FF0023BAE7FFF730FF2D
:10382000FAE7FFF74BFFF7E7FFF734FFF4E7FFF79F
:10383000CDFDF1E794F83D30332B06D0342BF6D094
:10384000312BE3D1FFF708FEE6E7FFF74DFFE3E793
:103850001B2D3DD8002D3DD06B1E1A2B3AD801A24E
:1038600052F823F03D39001031390010D5380010DE
:10387000493900104339001037390010D53800108D
:1038800007390010F53800109B370010D5380010AC
:10389000D5380010FB3800102B390010D538001037
:1038A00025390010D5380010D5380010D538001053
:1038B000D5380010D5380010D5380010D538001094
:1038C000D5380010D5380010D53800100139001057
:1038D0007F2D18D0A5F120035E2B1FD8206B4CF054
:1038E0009DFAE36A0130984218D22846A663FFF792
:1038F000C1FD52E7FFF7E4FD4FE700F009FA4CE79E
:1039000084F83C7049E7636B43B1013B0820636373
:10391000A663FFF709FDFFF77DFE3EE74046FFF790
:103920000FFD3AE7FFF7A0FE37E7FFF7A9FE34E700
:10393000FFF7B0FE31E7FFF7C1FE2EE7FFF78CFD82
:103940002BE7FFF743FD28E7FFF7CEFE25E72378B7
:10395000002B3FF406AF84F85400FFF7F1F800E7BE
:103960009828000873380510988C0008FB91051002
:103970000B4A936A072B30B510DC141D00218B42D3
:1039800006DC591C0233916242F82300002030BD4E
:1039900054F8045F854201D00131F0E70148F6E7B1
:1039A000988C0008010012087FB50546002835D024
:1039B000437E1F2B35D820236B76AB681BB16A681A
:1039C0000AB100221A70244C2B686A68E2626360B4
:1039D000AA6822630023A3626A7E84F860204FF401
:1039E0000052A2872A692264EA681C4E1C48E364DC
:1039F000C4E911236A692370C4E90D33A26584F810
:103A00005430E665FFF7B4FF3046FFF7C7FC1548B2
:103A1000FFF728FA48B114484AF0B0F8134804B048
:103A200070BDFA2BC9D9FA23C6E702902B7E019309
:103A30004FF4C05300930E4A0E4B0F4904F150004F
:103A4000FFF734F80028EAD001460C484AF028F87D
:103A50000448FFF719FAE1E7988C0008930C061068
:103A60008C3B0510FC8C0008A838051001001208DA
:103A7000CB3805109874000811370010DA3805109B
:103A80002DE9F0410C4D0746D5F828800026043575
:103A9000B04503DC00242046BDE8F08155F8044F12
:103AA000216809B90136F3E738464CF041F900289E
:103AB000F1D01C34F4E700BF988C00082DE9F04FDA
:103AC00087B00024054604944CF0A8F9013048F072
:103AD00001F88046A0B128464CF0A0F9DFF8249206
:103AE000421C214640464AF0BDFA99F86000059410
:103AF000042147F0D1FF064628B9404647F0F2FFBF
:103B00006FF0070422E0294640464CF01BF9D9F833
:103B1000581004AA40464AF065FB3060002800F0C7
:103B2000D580FFF7ADFF0746002800F0B080694957
:103B300000684CF0FDF8044660B9284600F038F9FA
:103B4000404647F0CFFF304647F0CCFF204607B055
:103B5000BDE8F08FFD680DB9D9F85850DFF8A8A17D
:103B6000DFF8A8B10124049B0BB11B784BB90025E9
:103B700046F824502BE011F801CB9C450DD10132C1
:103B80000492049A1378CDE9023263B328464CF0CC
:103B900045F9DDE90232294628448842EBD1222B3F
:103BA0001FD0272B1FD1594604AA00204AF01AFB28
:103BB00046F8240056F82430002BD4D099F8603011
:103BC000013B0134DBB2A342CDD26FF00305BA68EA
:103BD000631E934268D3002D69D17B6833B90024FA
:103BE000AEE75146E0E704AA2946DEE7204605AAEB
:103BF0003146984744B2002C4BD105980028EED0AE
:103C000001784378F9B9023000901A4632482946C3
:103C100049F046FF314849F0B1FF059B304819781B
:103C200049F03EFF059B2F48597849F039FF059B25
:103C30001A78C2B959782C489A1C49F031FF059876
:103C400047F050FF7CE72948294F1A4649F028FFE2
:103C5000059B5A78AA42DDDD2B443846997849F015
:103C60001FFF0135F4E72348214F49F019FF0025D4
:103C7000059B5A78AA4203DC184849F07FFFDEE72B
:103C80002B443846997849F00BFF0135F0E76FF087
:103C9000010404F10903DBB2092B0BD97A693968F5
:103CA000154849F0FDFE4BE76FF00204F1E76FF0B5
:103CB0000304EEE76FF003036343104A1048D15842
:103CC00049F0EEFEA31C3FF43BAFE7E76FF00504BD
:103CD00036E700BF3E5D0D10FF38051085930510D7
:103CE0000D390510323905105739051008390510FE
:103CF00041D905107E3905109E390510183C051074
:103D0000AD390510988C0008820C0610DB0E0610E9
:103D1000F8B5244D2B6B1C78002C3DD02248002494
:103D2000AC63FFF73BFB2E6B307870B330464CF042
:103D300075F8A96D074630464AF0E8F9874219D967
:103D40006A6C9AB1EB6C286C0133B3FBF2F102FBA5
:103D50001133EA6AEB6402FB030031464AF0C3F90F
:103D6000D5E91123934201D20133AB64286BFFF7ED
:103D7000A5FE04460D4B2A6B1C70002313706B6369
:103D8000E86DFFF70BFB2046F8BDAC6C002CF1D0C2
:103D90003146FFF7E7FAE9E703486C63FFF7FEFAFD
:103DA000EEE700BF988C000854390510008D00081C
:103DB0002DE9F047ADF5006D04464CF02FF80130C9
:103DC00047F088FE0546002853D020464CF026F8E0
:103DD0000021421C28464AF045F92146374C284626
:103DE0004BF0B0FFA16D28464AF0A0F9A16D00206C
:103DF0004AF09CF93249022204464AF062F9C8B9F5
:103E00000234012720464CF009F82E4920440026B0
:103E10004FF00A0CA0421CD014F8013BA3F1300271
:103E2000D2B2092A0DD83FB1B6F1805F11D202EBB0
:103E30000616EFE70027E5E78E420AD80CFB0626B8
:103E4000E8E7A3F14102052A17D8373BDAB2002F81
:103E5000EAD10027DFF87090E846BA4649460020CC
:103E60004AF064F9044670B9284647F03BFEA64282
:103E700020DC0DF5006DBDE8F087A3F16102052A95
:103E8000E7D8573BE2E74046802221464AF02BF92B
:103E9000013788F87FA008F18008DFE74046FFF788
:103EA0000DFE08F180080028E3D10135AF42F5D1BD
:103EB0000134DCE7E8460025F8E700BF988C0008ED
:103EC000B939051099999919BC39051001282DE9BE
:103ED000F0472AD8214EDFF88C800025371FBB6AB7
:103EE000AB4202DC0020BDE8F08756F8044FDFF853
:103EF0007890DFF878A01C3454F81C1C09B90135FF
:103F0000EDE754F8083C63B1BA6D4846127849F0C1
:103F1000C7FD54F8041C11B1504649F0C1FD1C34D2
:103F2000EAE7404649F0BCFDF3E74D682846FFF755
:103F3000A7FD80B106691EB100212846B047D2E72F
:103F400084691CB1204649F019FECBE72946044894
:103F500049F0A6FDC6E76FF00100C4E79C8C00089D
:103F6000E0390510CA390510BE390510D2390510DF
:103F70000CB42DE9F04F3E4D2B7889B006468846AB
:103F800033B90224204609B0BDE8F04F02B07047B3
:103F9000D5F81C44062828BF0026002CF2D0AB1907
:103FA0001C7B002CEED08C425FD3D5F82034002B44
:103FB00053D005A8984704460028E3D12D48DDF8E2
:103FC00014B04FF0FF314FF47A734FF03C0ABBFB53
:103FD000F3F9B9FBFAF70597FEF720FE044600282F
:103FE000CFD14FF47A7303FB19B3182203930AFB62
:103FF00017930293B7FBFAF30AFB1377B3FBF2F1C3
:1040000002FB113301971C4A00934FF48061B5F80D
:1040100018341A4849F068FE00F1180713ABC0F5D0
:104020008061129A0793E81949F04EFF431C02D0B1
:10403000B0F5806F02DB002385F81734D5F81C3407
:104040000E4A414630469847B5F8183409480133BE
:10405000A5F81834FEF7FCFD94E706A8FFF710F862
:104060006A69069B9B1A0593A8E700248AE700BFAC
:10407000048D0008088D0008403C05101C8D0008C8
:1040800013B50C4618B94FF0FF3002B010BD00292F
:10409000F9D001A90AF050FC0028F4D0019B63601C
:1040A000042323700020F0E770B50D46044620B1CC
:1040B00083798B4201D10079E8B1124E124B36F868
:1040C000152033F815309A4219D200237288A38044
:1040D00033880E4820601343B2881343F288134399
:1040E000DBB20BB92FF0E2FA36F81530A5710133C7
:1040F00026F815300020B0FA80F0400970BD41F27A
:104100000100F8E72C9100085A3C0510000010400F
:1041100038B503790446F3B96579A3790E4A006886
:1041200003EB850332F8131011B1013922F8131093
:1041300032F8353002EBC50251880B439188D288A2
:104140000B431343DBB233B90368002B01DA2FF0C2
:10415000D9FA0123237138BD2C9100082DE9F047CD
:104160001C4686B00023236003931E4BDFF87CA01F
:10417000DFF874900D4693E8030004AE86E8030070
:10418000012130461746FFF78FFF0DF10C08236819
:10419000BB420BD31448002403942FF00DFB304690
:1041A000FFF7B6FF204606B0BDE8F0870F49CDF80F
:1041B00000802023524648462FF05EFB78B94246E5
:1041C000291D2368BB42E2D212F8013B05F8013BEE
:1041D00023688D4203F101032360F2D1D7E76FF02A
:1041E0003B00E0E7643C051000001040B71DC1042F
:1041F00008B505F05BFA024B002818BF184608BD49
:1042000001001A08002005F051BA0000014B1860A7
:10421000002070473491000837B5054648B300F0D8
:10422000B7F8012827D0284600F0F4FB044648B927
:1042300000F054F8284600F041FC0446284624B11A
:1042400000F0CCFB204603B030BD4BF0E7FD95F904
:104250005C300093013023462246C1B2284600F06C
:1042600045F804460028EDD0284600F015FC284605
:10427000E6E7024CE6E7024CE4E700BF02001A085A
:1042800005001A0838B50546C0B100F081F80128CC
:1042900016D1284600F000FC044620B1284600F064
:1042A0009DFB204638BD00F069F804462846002CE6
:1042B000F5D100F093FB034B1C60F2E7024CF0E7F2
:1042C000024CEEE73491000802001A0806001A08B2
:1042D00047F000BC47F0E0BB47F004BC02480023B5
:1042E00003703BF0D5BB00BF3891000830B5A5B0D6
:1042F00004467822002106A89DF9A05049F0B2FE9C
:104300005CB323784BB320464BF088FD202824D89B
:10431000421C214606A84BF073FDC5B1022D18D0F2
:10432000032D18D0012D18D10D4B1F9300238DF8AC
:104330008C300C4B1B6803B1229301A906A83BF0FB
:104340008BFE094B002818BF184625B030BD074B1F
:10435000EBE7074BE9E7074BE7E70748F5E700BF5F
:10436000060020023491000807001A080400200209
:10437000040040020600400202001A0808B53BF0A3
:1043800015FE024B002818BF184608BD08001A0881
:1043900008B53CF025FB431E5842584108BD704704
:1043A00010B500F5966301F1300251F8044B43F863
:1043B000044B9142F9D1049B00F59C6203F120016A
:1043C00053F8044B42F8044B8B42F9D1059B00F59E
:1043D000A06203F1200153F8044B42F8044B8B42D6
:1043E000F9D19DF8183080F82035436CD3F828387F
:1043F000C0F8AC34002010BD10B5144692B201F0E4
:1044000051F800280CBF2046002010BD2DE9F041D6
:104410001F468368064618681546884602F01AF853
:10442000B36804464146186802F010F8079B284418
:10443000621B386090B21880069B18800020BDE88F
:10444000F08100002DE9F04786B00023064688463B
:10445000ADF80C30ADF80E30049317460593914635
:10446000B9F1000F03DC384606B0BDE8F087736D84
:10447000D3F86C4BE4B14C45A8BF4C46D3F8681B4D
:10448000224640464BF0BCFC736DD3F8682B2244A7
:10449000C3F8682BD3F86C2B121BC3F86C2BD3F822
:1044A000702B2244A044C3F8702BA9EB0409D7E772
:1044B00041F2883205A9304600F05AFF054610B394
:1044C0000DF10E03019303AB0093224604AB0146AA
:1044D0003046FFF79BFF736DDDF814A0049903F5D8
:1044E000A560C3F8680B52464BF08AFC736DC3F8A5
:1044F000704BC3F86CABC3F874ABB368294618684B
:1045000001F0AAFFACE7014FADE700BF04001A08B5
:104510002DE9F34700F1DC09054600F10C0700F531
:10452000846405F5387848468A4618F013FF4046FB
:1045300014F000FD204628F0BDFB384628F0DAFADA
:10454000384628F034F8204628F042FB404614F064
:10455000E3FC484618F022FF112300934449454BE1
:104560004A46404614F0FDFC034618B1424802B0EA
:10457000BDE8F08702460146204628F02DFB06469E
:104580000028F3D13D494246204628F01BF83C4B19
:104590003C491B6820469A6828F017F831462046A7
:1045A00028F01CF8D5F8D81021B13246204628F062
:1045B0001AF80221204627F0FEFFD5F8D420002A61
:1045C0003ED092F85C31012B39D102F1080120462E
:1045D00028F006F80028C9D101220321204628F03E
:1045E00024F803221146204628F01AF821463846BE
:1045F00028F02CFA0028B9D1A96821B10B6913B1B0
:10460000384628F01FF920492A46204628F012F89B
:10461000002300931D4A1E4B5146384627F0D8FF11
:1046200005F5A563C5F8683B384628F047F8064607
:1046300040B9A968384628F01DF9304697E70022AE
:104640001146C4E726F0800313F5D24FECD016F5DF
:10465000E04FE9D0484618F07DFE404614F06AFC71
:10466000204628F027FB384628F044FA09487EE720
:10467000D5D301106C3C051001002608A79001104D
:10468000982800089F430010A1430010F943001030
:1046900045440010090026081FB5CDE90223402338
:1046A000019300F59C63009330220B4600F5966160
:1046B00090F8200527F022FC05B05DF804FB00000F
:1046C00020B1C0F8D4104260002070470048704705
:1046D0000300260810B50446E0B100F5846028F018
:1046E000E9FA04F10C0028F005FA04F5387014F02A
:1046F00021FC04F1DC0018F02DFED4F8D80040B104
:104700002AF007FAD4F8D80047F0ECF90020C4F8F2
:10471000D80010BD0048FCE703002608D0F8D830C8
:1047200070B504460D46164613B15DB90F481BE03F
:104730004FF4AA7047F0CEF9C4F8D8000028F4D19D
:104740000B4811E0002EF1D0D4F8D8002AF0DCF9A3
:10475000D4F8D800721C29462AF04CFE20B1D4F8B7
:10476000D8002AF0D6F9034870BD00BF0300260820
:10477000040026080700260810B50446D0F8D80023
:1047800040B12AF0C6F9D4F8D80047F0ABF90023BD
:10479000C4F8D830002010BD2DE9FF41DDF8288095
:1047A0000E4617461D46044690B34FF4B0720021E2
:1047B00049F058FC25B9DEB9002084F85C0114E00A
:1047C000B8F1000FF7D004F1080003902AF09CF92B
:1047D000039808F1010229462AF00CFE0028EAD0CD
:1047E00004F108002AF095F90E4804B0BDE8F08104
:1047F00087B120461BF0BFF9002300937A1C314695
:1048000020461CF09BFB28B120461BF0B8F9E7E7D7
:104810000548EAE7002DCFD0012384F85C31002061
:10482000E3E700BF060026080300260810B504468B
:1048300038B108302AF06DF920461BF0A0F90020AD
:1048400010BD0148FCE700BF03002608406D10B50D
:104850004FF480620C460C30496824F08BFA002833
:10486000AABF60810148002010BD00BF01002608DA
:1048700008B500F5387014F016FC0028014808BF90
:10488000002008BD01002608F8B506460D4600299F
:1048900000F0818000287ED0002707604FF4BC70B4
:1048A00047F018F90446002877D04FF4BC72394617
:1048B00049F0D8FB686A60644BF0B0FAA064A86A5B
:1048C000E0644BF0ABFA2065E86A60654BF0A6FA4D
:1048D0001F22A0652946204649F005FC04F15D032E
:1048E0001F22184605F1310149F0FDFB4BF096FA05
:1048F00095F8203095F8302084F840300130192B9D
:1049000084F87D0084F85C2020D195F8523084F83A
:104910007E3004F17F031F2205F15401184649F04F
:10492000E2FB4BF07BFA04F1A003013084F89F0016
:104930003F2205F17401184649F0D5FB4BF06EFAA1
:10494000013084F8E00034600020F8BD152BFAD166
:10495000B5F85230A4F87E3095F8513084F8E23042
:1049600004F180031F2205F15401184649F0BBFBF6
:104970004BF054FA04F1A103013084F8A0003F2267
:1049800005F17401184649F0AEFB4BF047FA0130CF
:1049900084F8E100D7E70248D7E70248D5E700BF2F
:1049A00002001A0803001A0838B5044688B10568E1
:1049B0007DB105F1F80001F0FBFA4FF4BC72002163
:1049C000284649F04FFB206847F08CF80020206013
:1049D00038BD0148FCE700BF02001A0810B50446C4
:1049E000D0F8EC0020B1FFF777FC0023C4F8EC30DE
:1049F000D4F8E40020B1FFF76FFC0023C4F8E430E2
:104A0000D4F8E80020B1FFF767FC0023C4F8E830D1
:104A1000002010BD38B50446C0B3DC20FFF758FCB9
:104A2000C4F8E80048B3DC22002149F01BFB40F643
:104A30007830FFF74DFCC4F8E400B8B140F67832A6
:104A4000002149F00FFBD4F8E43004F1F8029A6039
:104A50004FF4B070FFF73CFC0546C4F8EC0070B9A9
:104A6000D4F8E400FFF738FCC4F8E450D4F8E800C8
:104A7000FFF732FC0023C4F8E830054805E04FF4A6
:104A8000B072002149F0EEFA002038BD0148FCE781
:104A900003001A0802001A0810B558B1D0F8E8400F
:104AA00044B1204601F060FA28B92046BDE8104024
:104AB00001F0E6B9004810BD02001A0870B59EB0BA
:104AC00004463AF02DFB054614B935481EB070BDBA
:104AD000D4F8E860002EF8D00028F6D020464BF03D
:104AE0009DF92146C2B28DF804000DF105004BF08E
:104AF00087F994F85C3094F95C20032BE5D82949B8
:104B000051F82330591CE0D08DF85520626D1C926D
:104B1000A26D1D92A26C1492626CCDF83230139289
:104B200094F84030E26C1992226D1A92192B04F11C
:104B30005D028DF85430169221D194F87E308DF8B4
:104B40006C3004F17F03179304F1A0031893D4F899
:104B5000E4309A681192D4F8EC201092002212935B
:104B6000C3F8D820DA600FA92B680F93304601F004
:104B700061F80028AAD1304601F006FAA6E7152B05
:104B8000E5D194F8E2308DF86E3004F1800317938C
:104B900004F1A1031893B4F87E30ADF86C30D6E779
:104BA00002001A08803C05102DE9F0411E468B6872
:104BB0000D46074601461868904601F047FCD5F8B7
:104BC0002A300360EB8D83806B6AC0F806302B8D32
:104BD0004381044648F68E0001F0F5FB0123A081D5
:104BE000A37384F80F80304601F0EDFB06F112024A
:104BF00020823946686892B2BDE8F04101F02FBCCE
:104C000037B5836805461322186801A901F002FC34
:104C1000044648B9019838B1234601222946FFF7D6
:104C2000C3FF204603B030BD004CFAE70A001A0863
:104C30002DE9E34F91461E4603F1180283680546AD
:104C40008A46186892B201A901F0E4FB804608BBCD
:104C5000AB680199186801F0F9FB0223837406F12F
:104C6000050B0027EB7CC3746BF30F274FEA1B2364
:104C7000BFB263F30707878280F816A03246494621
:104C800017304BF0BDF801981FFA8BF342462946C6
:104C9000FFF78AFF02B0BDE8E08F000037B58368F8
:104CA00005461922186801A901F0B4FB0446B0B901
:104CB000AB680199186801F0C9FB02238374EB7C8F
:104CC000C374062304754375C4752A788275294612
:104CD00001982246FFF768FF204603B030BD014C23
:104CE000FAE700BF0A001A0838B583680446186856
:104CF0000D4601F0ABFBE37CC374A368294618683A
:104D000001F0A8FB123883B2002228462146FFF7A3
:104D10004BFF002038BDF0B59DB0074605A81C46E6
:104D200015460E461EF046F805A81EF051F8394605
:104D3000102205A81EF0BAFF3146102205A81EF069
:104D4000B5FF28464BF06AF82946024605A81EF032
:104D5000ADFF694605A81EF0E6FF05A81EF02EF877
:104D60006A4603CA2060002061601DB0F0BD70B5C6
:104D700096B00E4605466846144619F01BFB3246AF
:104D80002946684619F0D7FD2146684619F0D8FD36
:104D9000002016B070BD30B5037823F001030B700E
:104DA0000025012301F8015F0278C3F10804A24045
:104DB00010F8014F1C4101332243082B0A70F1D136
:104DC000002030BD10B5A4B00446084602A90192E7
:104DD000FFF7E1FF04A814F05DFC02A904A814F099
:104DE0006EFE019A214604A814F0C2FE04A814F035
:104DF00055FC002024B010BDF0B587B00C46054628
:104E00000021164601A81222009149F02BF92346F1
:104E100003F110076C4618685968224603C208332C
:104E2000BB421446F7D1324669462846FFF7CAFF0F
:104E300006F108020DF107012846FFF7C3FF06F14E
:104E400010020DF10E012846FFF7BCFF002007B04D
:104E5000F0BD30B5054687B01C4608466B4629466E
:104E6000FFF759FFBDF8281002AA2046FFF77FFF81
:104E70000B9A02A96846FFF7BFFF002007B030BDBC
:104E80002DE9F0470378D1F8D470012B88B0804623
:104E90000C4679D110220023606D97F82A600393A5
:104EA0000DEB0201CDE90433CDE90633FFF7E0FC59
:104EB000237806F1360A192B56460DD194F85C304A
:104EC000009452461A2103A800F098F8039971B98A
:104ED000494808B0BDE8F087152BF7D194F85C304D
:104EE000009452461A2103A801F0D3F8EEE7A36814
:104EF000186801F0ABFA0223037098F80130437090
:104F00003123054603710DF1100C421D0DF1200EE9
:104F1000634603CB7345106051609C4602F1080262
:104F2000F6D10023C5F81530C5F8193007F10A0984
:104F300097F82A20494605F136004AF061FF002320
:104F40006AF30F239BB2360A66F307036B801D35A5
:104F5000019597F86B3000934A4607F12B0304A99B
:104F600008F10500FFF775FF2378192B04D12146BE
:104F700003A800F098F805E0152B03D1214603A8FB
:104F800001F038F80020A4E7032B2FD1002304936D
:104F90000B78192B16D1009191F85C3001221A215F
:104FA00004A800F02BF80499002991D0A368186890
:104FB00001F04CFA032303702378192B0DD12146FD
:104FC00004A8D6E7152BEED1009191F85C300122B0
:104FD0001A2104A801F05DF8E5E7152BD2D121468E
:104FE00004A801F007F800237B60CBE7042B0248FC
:104FF00008BF00206DE700BF0E001A082DE9F74337
:10500000DDF82880154606461F4600240DF10603EC
:1050100001AA894640462946ADF80440ADF806404D
:1050200000F0C3FBBDF80630BDF804201A4424325A
:10503000D8F808302A443A44186892B2314601F050
:10504000E9F970BBD8F808303168186801F0FEF94A
:105050000223837498F81330C374192383753B1BA0
:1050600018BF012300F11804DB011722C375E255B4
:10507000D8F85420E3195169597092699A70013532
:105080006DBA83F80590A3F80350D8F8083007F1FB
:105090001E021868314600F045FC304603B0BDE8FA
:1050A000F0832646F9E78B682DE9F0470D466FF04F
:1050B0001D0201468046186800F034FCAB68D8F841
:1050C0000010186801F0C2F9C37D00F1180ADB096D
:1050D0000AEB830A0446BAF80320686D52BA92B20A
:1050E0000AF105010C304FEA830923F05BFF002829
:1050F00021DB6B6DD3F8B460D3F8A010771D3A466E
:1051000050464AF07DFEB9F1000F06D03B0AE77623
:10511000A3763B0C3F0E6376277606F10B034B44D8
:105120005ABAA282D8F8000029469BB2BDE8F047DF
:105130000022FFF739BDBDE8F08700007FB5836826
:10514000D0F8D4500446186801F080F9017801299C
:1051500006463BD1027994F85C30212A23D10A22F9
:10516000009403A8FFF74AFFA3680399186801F0A9
:105170006DF9022300F8013C737803703379C37032
:10518000002343700B238370D6F805304360B6F8D4
:1051900009300381174B6B60214603A8FFF783FF9B
:1051A000002004B070BD95F82A20697203A800940D
:1051B000FFF724FFA3680399186801F047F995F8F1
:1051C0002A2005F10A014AF01BFEE5E72A786B7AEE
:1051D000914204D0012BE3D102236B72E0E7013B43
:1051E000022BDDD81A29DBD121460130FFF748FE1A
:1051F0000323F2E70C001A082DE9F0430378D0F8F6
:10520000D450192BADF2144D04462ED0152B2ED0B0
:105210001C4B6B6000261C4F02E00A20FDF73CFF90
:10522000626D6B681269102A23D1DFF8688004AFC1
:105230004FF000096B6843451DD14FF47F72002188
:1052400005A8C7F8009048F00DFF0021102268461D
:1052500048F008FF694620460197FFF7F7FA002853
:10526000E8D169462046B047E4E7084ED3E7084E48
:10527000D1E7BB42D1D10DF2144DBDE8F043FDF7AB
:105280005FBC00BF0A001A080C001A083D5100104C
:10529000DD6200100B001A0810B51C464B68102B7D
:1052A0000ED14B88DB070BD5637C4BB9237404F11B
:1052B0001800FDF7E5FE606843F6982101F0DCF880
:1052C000204610BD10B4847D012C0A460ED1094B36
:1052D0005B682BB9224600685DF8044B3DF090BF37
:1052E0005DF8044B0321184601F0D1B85DF8044B7A
:1052F000704700BF3C91000870B5049C00251D80DC
:10530000258081B14D68102D0DD105251D804D6C76
:105310002B6D43B15B78062B07D0082B05D0022BF1
:1053200012D0072B21D0002070BDB0F8D8302188D2
:1053300013F0020F6B680B44A96814BF08221022F7
:105340005B1A13442380EEE720886E68531F1B1AF4
:105350000130B3FBF6F206FB1233CA6803449BB27A
:10536000012A2380C4BF9B192380EB682288E8E7C9
:105370001FB5806D0C46083001A9FDF7B5FC60B97A
:105380009DF804302BB9BDF80C302360029804B0AE
:1053900010BD0A20FDF780FEF8E70020F7E70000C7
:1053A00030B50446B1B000217C2211A8109148F01C
:1053B00059FE2578164817498023152D18BF014638
:1053C00010AA606DFFF768F994F91230042B0CBF36
:1053D00018A910A92022684600F0F8FFA068402212
:1053E000694601F06FF8054650B9636DD3F8AC34E7
:1053F000012B05D02378152B204604D100F0BAFFED
:10540000284631B030BDFFF749FC0546F8E700BF3C
:10541000A53C0510903C051030B50146856D85B062
:1054200004460222406DFFF773F860B10E4BE36053
:105430000835002201A92846FDF756FC38B1FDF7D2
:105440007FFB05B030BD2046FFF7AAFFF0E79DF8CF
:105450000430032B01D0062BEBD1A3680299186806
:1054600000F0FAFFE5E700BF0C001A0808B54FF09E
:10547000FF321830FDF738FC024B002818BF1846E1
:1054800008BD00BF0A001A0808B54FF0FF321830F7
:10549000FDF7F6FB024B002818BF184608BD00BFF9
:1054A0000A001A082DE9F04F1546426DD2F8B030C7
:1054B000152B8BB004460E4640F08780426E006E7E
:1054C000002148F0CFFD206EA0662A4631464AF002
:1054D00097FCA36E2B44E366D4E91A32A2EB0309CE
:1054E000236E009300232375C9F307230293C9F3A6
:1054F000074303934FEA1963C84604934FF0040A25
:10550000B8F1000F00F08480CAF5806747458CBF72
:105510001FFA88F7BFB207EB0A03A068019318339C
:105520009BB2006805931A4606A900F073FFA8EB2A
:105530000708064600286CD1A2680699106800F09A
:1055400085FF4FF00203837422788275E27CC27477
:105550000AF106023A4462F30F2B019AC67506322D
:10556000120A1FFA8BFB62F3070B1FFA8BFBA0F8E2
:1055700014B00546183000993A4650444AF040FCB1
:10558000A068059B069900681A4600F061FFBAF111
:10559000040F75D1029BAB76039B6B76B8F1000FBD
:1055A000049B2B760CBF8023C023069A85F81B90A2
:1055B000EB750621204600F06AFFB8F1000F02D01B
:1055C000009B3B440093B2469AE71369022B0AD032
:1055D000017D11B9D91F022905D90B2B26D1D2F88B
:1055E000AC14012922D101232375626E206E0021A3
:1055F00048F038FD206EA0662A4631464AF000FC8D
:10560000A36E2B44E366636D1A69D11F022904D887
:10561000002630460BB0BDE8F08F0B2A7FF45CAF5C
:10562000D3F8AC34012B7FF457AFF1E7A3F10801B5
:10563000032908D8E06E2A4631464AF0E1FBE36EC2
:105640002B44E366E4E70C2B06D00E3B012BDFD89E
:10565000D2F8AC34012BDBD12A46E06E31464AF059
:10566000CFFBE36E2B44E366636DD3F8AC24012AD1
:1056700001BF5B6CD3F8E0331B7FA4F8D8302BE775
:10568000B8F1000F03D0EB7D43F04003EB754FF012
:1056900006038DF81C306068069B089307A9FFF786
:1056A000F3FE564689E738B5D0F8D450044665B1C4
:1056B000E86F18B100F0ACFE0023EB67D4F8D4001B
:1056C00000F0A6FE0023C4F8D430002038BD00004E
:1056D000D0F8D40008B540B14268054B9A4204D0D6
:1056E000013B43607830FDF765FA002008BD00BF3C
:1056F0000D001A0838B518210546114800F081FE42
:10570000044670B11822002148F0ACFC0D482C6012
:105710004FF4805100F075FE606020B9204600F023
:1057200077FE09480BE04FF48052002148F09AFCC4
:105730000C220F2104F10800FDF7B2FB002038BD58
:10574000BB3C0510CF3C051003001A0838B50568AE
:1057500004468DB12846FDF72DFA05F10800FDF746
:10576000B3FB686818B100F053FE00236B6020683B
:1057700000F04EFE00232360002038BDC36910B541
:1057800004468BB10378192B01D0152B05D1204687
:10579000FFF79EFF2046FFF786FF04F15800FFF752
:1057A000D5FF00236374E36110BD13B5446D00930E
:1057B00013460A4604F10C01FFF79EFD02B010BD2E
:1057C00038B50446806D4FF0FF3208300D46FDF7C6
:1057D00057FA20B1A3686968186800F03DFE002000
:1057E00038BD00001FB50023037508224FF4805315
:1057F000846D0290CDE9003203496368034A204674
:10580000FDF754F904B010BD19540010DF3C051029
:10581000202A80F8502028BF202230304AF0F0BAE9
:1058200038B5192990F87130154605D0152923D1BE
:105830001A2B01D0112B1FD1D0F8D440E4B195F828
:105840002020202A28BF202284F82A2095F86130C1
:10585000402B28BF4023294684F86B3004F10A000E
:105860004AF0CEFA94F86B2005F1210104F12B00E7
:10587000BDE838404AF0C4BA38BD000007B5034659
:10588000084A806829B1118803B05DF804EB3FF045
:1058900037BE00920449054A3FF092FD03B05DF81F
:1058A00004FB00BF242300086C3D05109952001032
:1058B000F8B505460F461748802100F0A2FD0446C2
:1058C00098B18022002148F0CDFB1348C5F8D440A0
:1058D0004FF4805100F095FD0646E06738B9D5F8E1
:1058E000D40000F095FDC5F8D4600C4810E04FF4EA
:1058F0008052002148F0B6FB0026094B27702A464B
:1059000063602681284612F8721BFFF789FF304634
:10591000F8BD00BFE93C0510063D051003001A085C
:105920000D001A083DF094BC1FB50378152B1CD14F
:1059300090F87030012B1AD190F87130112B01D0F2
:105940001A2B14D1D0F8D4400A4B636008224FF4CC
:105950008053CDE900320290E36F074A074904F112
:105960007800FDF7A3F804B010BD192BE9E704484F
:10597000F9E700BF0B001A081E3D0510F951001091
:105980000A001A082DE9FF410B78013B04460E4638
:10599000052B00F2E480DFE813F0AD0006000C00F8
:1059A000E200E200CE006F4BC360002004B0BDE80F
:1059B000F0818368496818683DF030FC837C012BD6
:1059C000054640F08980C37CE374827D012A23D19F
:1059D0002046FFF7D3FE637C23B9A06804F12A01B7
:1059E00000F06DFD04F11C00FDF74AFB04F1180006
:1059F000FDF746FB606800F047FD012194F8503048
:105A0000617404F130022046FFF712F9A36871684F
:105A1000186800F021FDC8E72178637C8A4206D02F
:105A2000012BF3D10222627403212246EBE7591EB7
:105A300001290BD80323637404F15800FFF75AFEC1
:105A40000028E3D12046FFF7CDFEDFE7032BDDD1B1
:105A5000192ADBD8444BD340DA07D7D5C37D5B0680
:105A600002D52046FFF71AF995F91730002BB4BF7D
:105A70000423002384F85C30A88AB4BF4FF01C08CC
:105A80004FF0180800F09FFC0746A88A00F09BFC26
:105A9000062816D9A36842461868311D123700F04F
:105AA000D3FC002573688DF80450A7EB08074FF06E
:105AB000FF3201A920460293ADF80C70FFF780FE7B
:105AC00073E7606801A9FFF7D1FC00289ED1029915
:105AD0002046FFF709F999E7DA1E012A96D8032B29
:105AE000224B08BF0023E3602046FFF747FE012357
:105AF00023748BE7038A002B7FF457AF00F12A0150
:105B0000806800F0DCFC94F82A3083B994F82B30DC
:105B10006BB994F82C3053B994F82D303BB994F804
:105B20002E3023B994F82F30002B3FF43EAF20469F
:105B3000FFF766F839E74968FFF7D6F82378192B9D
:105B40007FF433AF636D1B690A2B7FF72EAF1A21E9
:105B50002046FFF7ADFE2046FFF7E6FE25E70448A6
:105B600024E700BF0C001A08002020020F001A08CA
:105B70000E001A08F0B5284BC360284B45685860E2
:105B8000044685B01830FDF77BFA254E04F1200756
:105B9000E368B34204D12046FFF7F0FD05B0F0BD45
:105BA0003846FDF76DFAE26942B1236A9B1A46F264
:105BB000A712934202D92046FFF7E0FD237C012B78
:105BC00027D06846FDF75CFA0099A36947F22F5287
:105BD000C81A904201D9E660DAE7C1F5EA423032EC
:105BE0001A442B692BB1E86803445B1A9A4228BF18
:105BF0001A4601A905F10800FDF776F820B1012346
:105C00008DF804300023029301A92046FFF7BAFE65
:105C1000BEE743F69822ECE70B001A083C91000817
:105C20000C001A0808B5FFF7A5FFBDE80840FCF70F
:105C300087BF00002DE9FF470B7E152B05460C465C
:105C400040F0FE8091F83030012B04D0824E304677
:105C500004B0BDE8F08791F83130112B01D01A2B38
:105C6000F4D194F83230002B40F0F0800023009300
:105C70001A4619466068FEF78FFD0028E6D1E068F5
:105C80006865D4E90412FEF749FD0246002840F099
:105C9000D3806168E068FEF713FD002840F0CE80F5
:105CA0006E4800F019FC0646002840F0AD806C48B4
:105CB0001C22012100F0A8FB0746002800F0BA8052
:105CC000686040F6AC526748012100F09DFB2866F1
:105CD000002800F0AD8040F6AC536B66637E6248EE
:105CE000AB744FF48052012100F08EFB78600028E5
:105CF00000F09A802068786105F12401A86041F0E5
:105D000023F9237E594A2B70152BEE61EA602E820F
:105D100040F0848094F8313085F8713094F8303058
:105D200085F8703007F108090C220F214846FDF76D
:105D3000B7F800287AD107F1180A0C220A21504638
:105D4000FDF7AEF8804600286BD1E169E3686B652A
:105D5000084603914AF062F8039902462846FFF785
:105D600057FD237E192B01D0152B28D1666A3046AA
:105D70004AF054F805F1950332464FF0000C12F842
:105D8000011B03F8021C911B814203F801CC03F1B3
:105D90000203F4DD20EAE070400085F8D300216AB8
:105DA000039108464AF03AF82028024628BF2022EC
:105DB000039985F8922005F172004AF021F82C4BE6
:105DC00000932C4A2C49A8682B463FF0F9FA064666
:105DD00000283FF43CAF5046FDF776F84846FDF703
:105DE00073F84646786818B100F012FB00237B6018
:105DF000286E00F00DFB00232B66686800F008FB9E
:105E000000236B60FEF7FEF9686DFEF7B5FCE068F5
:105E1000FEF760FC6068FEF709FD18E7192B81D1D9
:105E200078E7DFF83480D9E7144EDBE70A4ED9E78C
:105E3000124EE2E7114EE5E7074EE8E7064EE9E7C6
:105E4000192B3FF413AF0D2B7FF419AFE36A0093C6
:105E5000D4E90D12A36A0DE70A001A08C552001012
:105E6000253D0510353D0510473D05100D001A086C
:105E700024230008995200106C3D051003001A08F5
:105E8000F0B5C268344B9A4285B004465FD145688C
:105E9000FEF7B8F901212046FFF7F0FC002D58D09D
:105EA00005F10807002201A93846FCF71DFF00286C
:105EB00037D06068002201A91830FCF715FF0028D0
:105EC0003BD0264B264E00225A60E368B34202D0F4
:105ED0002846FCF76FFE3846FCF7F6FF05F1180080
:105EE000FCF7F2FF686818B100F092FA00236B60CB
:105EF000284600F08DFA206EE6600025656010B13E
:105F000000F086FA2566606DFEF736FC636DD3F807
:105F1000D400FEF78BFC606DFEF7DCFB002005B0C3
:105F2000F0BD9DF80430032B01D0062BBAD1A36835
:105F30000299186800F090FAB4E79DF80430062B37
:105F4000B7D1A3680299186800F086FAB1E705484E
:105F5000E5E72846E3E700BF0C001A083C9100087B
:105F60000D001A080A001A0808B5C268054B9A42C3
:105F700006D00022022100F08AFA0A20FDF78CF8F0
:105F8000002008BD0D001A081FB54FF480530822E9
:105F900044680290CDE9003203496368034A204611
:105FA000FCF784FD04B010BD255C00105F3D0510BA
:105FB00008B126F011BC704730B509B9084608E0B1
:105FC00003681BBA9A4205D190F90430002BB8BF80
:105FD000002030BD84794379240244EA0344C37924
:105FE0005D4205F003051C432B442C44C91A204490
:105FF000C9B2E2E72DE9F04791F85C208B68C2F165
:10600000FF220D4602F57F02D6320146804618680F
:10601000FFF788FCAB68D8F80010186800F016FA93
:10602000C37D00F1180ADB090AEB830A0446BAF8BB
:106030000320686D52BA92B20AF105010C304FEAA2
:10604000830922F0AFFF002821DB6B6DD3F8B46029
:10605000D3F8A010771D3A46504649F0D1FEB9F169
:10606000000F06D03B0AE776A3763B0C3F0E637623
:10607000277606F10B034B445ABAA282D8F80000E7
:1060800029469BB2BDE8F0470022FEF78DBDBDE872
:10609000F0872DE9F74FDDF83080154606461F469C
:1060A0006A460DF10203894640462946D8F8D4A035
:1060B000FFF77BFBBDF80230BDF800201A443032F8
:1060C000D8F808302A443A44186892B2314600F0B1
:1060D000A1F98346002858D1D8F8083031681868EB
:1060E00000F0B4F90223837498F81330C3741523B5
:1060F00083753B1E18BF0123DB01C37500F1180334
:106100001722DA55DC19D8F854305A6962709B6945
:10611000A37005F10D0253BAA4F803304F23237284
:1061200040236372110A130201F47F4103F47F03D9
:106130000B4343EA02630193BDF8053063819DF888
:106140000730237384F805B084F806B084F807B0EC
:106150009AF8093084F81190022B05F105050CBF5F
:10616000012302236DBA6373A4F80F509AF86C30C0
:10617000A373D8F8083007F12A0218683146FFF7F0
:10618000D1FB304603B0BDE8F08F0026F9E70000F0
:106190002DE9F041D1F8D44094F80980B8F1020F0C
:1061A000A8B007460D4646D0B8F1030F75D0B8F138
:1061B000010F3CD194F82A20009191F85C301A32FA
:1061C000112118A8FFF765FFAB681899186800F04F
:1061D0003DF9002343701823837080F800800DF18F
:1061E000200894F86B100646424604F12B00FEF797
:1061F000BEFDF81C02AA4146FEF7FEFDF71C02ABED
:106200001A4603CA424538607960134607F1080709
:10621000F6D194F82A2004F10A0106F11B0049F096
:10622000EFFD294618A8FFF7E5FE02236372002060
:1062300028B0BDE8F08194F82A20009191F85C30F4
:106240000A32112118A8FFF724FFAB6818991868C3
:1062500000F0FCF8012303700822002343708270D1
:1062600004F16D0706463946686DFEF701FBD4F868
:106270006D30C6F80330D4F87130C6F8073094F8A2
:106280002A2004F10A0106F10B0049F0B9FD294664
:1062900018A8FFF7AFFE0323C8E794F86B1008AA0D
:1062A00004F12B00FEF763FD94F86B1018AA08A800
:1062B000FEF75DFD02AA18A904F16D00FEF79CFD32
:1062C000182202A9F81C47F0A3FE0028024B08BFC1
:1062D000002363600423A9E70A001A08F0B5836865
:1062E000D0F8D450044685B018680F4600F0AEF8D8
:1062F000A36806463946186800F0ACF894F8703088
:10630000012B32D1C1B24F223046FFF755FE60B3A8
:106310006A7A437A85F86C30012A2B7817D1017B91
:10632000994214D094F85C300094032103A8FFF73D
:10633000B0FEA3680399186800F088F82B78037002
:10634000214603A8FFF756FE002005B0F0BD112B33
:1063500006D01A2BF8D121460D30FEF791FDF3E758
:1063600021460D30FFF714FFEEE70148EDE700BFCF
:106370000A001A0830B5044685B090F87110FFF78E
:1063800097FAD4F8D45094F85C3095F82A20009409
:10639000012103A8FFF77DFEA3680399186800F0A8
:1063A00055F895F82A2005F10A0149F029FD214602
:1063B00003A8FFF71FFE01236B722046FFF7B4FA14
:1063C000002005B030BD40BA80B2704770B50139C9
:1063D0000024461C944200D170BD4D782B099F2D9E
:1063E00094BF3033373300F8143011F8013F03F015
:1063F0000F03092B94BF3033373306F814300134C0
:10640000E8E70846FDF764BF08461146FDF762BF9E
:10641000FDF762BF73B51E320123009393B20022D1
:1064200006460D463CF0D8FE044628B10023054C34
:106430002B60204602B070BD1E22294630463CF03B
:1064400007FFF6E70A001A083CF002BF3CF0E6BE80
:106450003CF0F2BE3CF0E9BE01223CF0D1BE38B5C2
:10646000436904460D4618683CF0E6FE606929461B
